0179066350999992015010100004+47133+007617FM-12+048299999V0202001N001019999999N999999999-01061-01151103901ADDAA101000091AA206000091MA1999999097591MD1510021+9999OD139900211999OD259900101999REMSYN08806635 03/// /2002 11106 21115 39759 40390 55002 60001 333 55300 20000 60005 91104 91202=
0162066350999992015010101004+47133+007617FM-12+048299999V0201301N000519999999N999999999-01131-01241103931ADDAA101000091MA1999999097601MD1510001+9999OD139900151999OD259900051999REMSYN08206635 23/// /1301 11113 21124 39760 40393 55000 333 55300 20000 60005 91103 91201=
0162066350999992015010102004+47133+007617FM-12+048299999V0201801N001019999999N999999999-01161-01171103981ADDAA101000091MA1999999097641MD1210051+9999OD139900151999OD259900101999REMSYN08206635 23/// /1802 11116 21117 39764 40398 52005 333 55300 20000 60005 91103 91202=
0162066350999992015010103004+47133+007617FM-12+048299999V0202401N000519999999N999999999-01141-01241103991ADDAA101000091MA1999999097651MD1210061+9999OD139900151999OD259900101999REMSYN08206635 23/// /2401 11114 21124 39765 40399 52006 333 55300 20000 60005 91103 91202=
0162066350999992015010104004+47133+007617FM-12+048299999V0202201N001019999999N999999999-00971-01121103981ADDAA101000091MA1999999097681MD1210081+9999OD139900211999OD259900151999REMSYN08206635 23/// /2202 11097 21112 39768 40398 52008 333 55300 20000 60005 91104 91203=
0162066350999992015010105004+47133+007617FM-12+048299999V0200701N000519999999N999999999-01111-01231104051ADDAA101000091MA1999999097721MD1210081+9999OD139900151999OD259900101999REMSYN08206635 23/// /0701 11111 21123 39772 40405 52008 333 55300 20000 60005 91103 91202=
0304066350999992015010106004+47133+007617FM-12+048299999V0201601N00051000601CN000300199-01221-01301104091ADDAA101000091AA212000091AA324000091AJ100113100110099AL19900031AY141021AY211021GF109991999999999999999999IA1239KA1240N-01341MA1999999097731MD1210081+9999MW1451REMSYN13606635 01/03 91601 11122 21130 39773 40409 52008 60002 74541 333 21134 3/106 47011 55064 55300 20000 60005 70000 90768 93100 91104 91203=
0162066350999992015010107004+47133+007617FM-12+048299999V0202201N000519999999N999999999-00931-00931104031ADDAA101000091MA1999999097741MD1210061+9999OD139900101999OD259900051999REMSYN08206635 23/// /2201 11093 21093 39774 40403 52006 333 55300 20000 60005 91102 91201=
0162066350999992015010108004+47133+007617FM-12+048299999V0202301N000519999999N999999999-00761-00991104051ADDAA101000091MA1999999097801MD1210081+9999OD139900101999OD259900051999REMSYN08206635 23/// /2301 11076 21099 39780 40405 52008 333 55300 20043 60005 91102 91201=
0162066350999992015010109004+47133+007617FM-12+048299999V0202501N000519999999N999999999-00841-01061104101ADDAA101000091MA1999999097831MD1210101+9999OD139900101999OD259900051999REMSYN08206635 23/// /2501 11084 21106 39783 40410 52010 333 55300 20274 60005 91102 91201=
0162066350999992015010110004+47133+007617FM-12+048299999V0209999C000019999999N999999999-00721-00951104131ADDAA101000091MA1999999097881MD1210141+9999OD139900051999OD259900051999REMSYN08206635 23/// /0000 11072 21095 39788 40413 52014 333 55300 20716 60005 91101 91201=
0162066350999992015010111004+47133+007617FM-12+048299999V0202801N001019999999N999999999-00541-00651104051ADDAA101000091MA1999999097851MD1210051+9999OD139900211999OD259900151999REMSYN08206635 23/// /2802 11054 21065 39785 40405 52005 333 55304 20925 60005 91104 91203=
0233066350999992015010112004+47133+007617FM-12+048299999V0201801N00051000601CN000300199-00421-00561104031ADDAA101000091AA206000091AY141021AY221021GF109991999999999999999999MA1999999097861MD1990031+9999MW1451OD139900261999OD259900151999REMSYN09406635 01/03 91801 11042 21056 39786 40403 50003 60001 74542 333 55304 21094 60005 91105 91203=
0162066350999992015010113004+47133+007617FM-12+048299999V0202901N000519999999N999999999-00361-00521103981ADDAA101000091MA1999999097821MD1710061+9999OD139900151999OD259900051999REMSYN08206635 23/// /2901 11036 21052 39782 40398 57006 333 55300 20904 60005 91103 91201=
0162066350999992015010114004+47133+007617FM-12+048299999V0201401N000519999999N999999999-00361-00471103971ADDAA101000091MA1999999097811MD1710041+9999OD139900151999OD259900051999REMSYN08206635 23/// /1401 11036 21047 39781 40397 57004 333 55300 20551 60005 91103 91201=
0162066350999992015010115004+47133+007617FM-12+048299999V0201801N000519999999N999999999-00381-00481103941ADDAA101000091MA1999999097781MD1710081+9999OD139900211999OD259900101999REMSYN08206635 23/// /1801 11038 21048 39778 40394 57008 333 55300 20266 60005 91104 91202=
0162066350999992015010116004+47133+007617FM-12+048299999V0202001N000519999999N999999999-00681-00721104011ADDAA101000091MA1999999097781MD1710041+9999OD139900151999OD259900151999REMSYN08206635 23/// /2001 11068 21072 39778 40401 57004 333 55300 20068 60005 91103 91203=
0162066350999992015010117004+47133+007617FM-12+048299999V0200801N001019999999N999999999-00961-01071104131ADDAA101000091MA1999999097831MD1310021+9999OD139900211999OD259900151999REMSYN08206635 23/// /0802 11096 21107 39783 40413 53002 333 55300 20000 60005 91104 91203=
0275066350999992015010118004+47133+007617FM-12+048299999V0201101N001019999999N000500199-00771-00861104091ADDAA101000091AA212000091AJ100113100110099AL19900031AY141021AY211021GF100995999999999999999999IA1239KA1120M-00301MA1999999097831MD1210051+9999MW1441REMSYN11806635 01/05 01102 11077 21086 39783 40409 52005 60002 74441 333 11030 47011 55300 20000 60005 90766 93100 91104 91203=
0162066350999992015010119004+47133+007617FM-12+048299999V0200901N000519999999N999999999-00811-00841104061ADDAA101000091MA1999999097801MD1990021+9999OD139900101999OD259900101999REMSYN08206635 23/// /0901 11081 21084 39780 40406 50002 333 55300 20000 60005 91102 91202=
0162066350999992015010120004+47133+007617FM-12+048299999V0201401N001019999999N999999999-00971-01021104131ADDAA101000091MA1999999097821MD1510011+9999OD139900151999OD259900101999REMSYN08206635 23/// /1402 11097 21102 39782 40413 55001 333 55300 20000 60005 91103 91202=
0162066350999992015010121004+47133+007617FM-12+048299999V0209999C000019999999N999999999-01061-01141104191ADDAA101000091MA1999999097861MD1210031+9999OD139900151999OD259900101999REMSYN08206635 23/// /0000 11106 21114 39786 40419 52003 333 55300 20000 60005 91103 91202=
0162066350999992015010122004+47133+007617FM-12+048299999V0209999C000019999999N999999999-00991-00991104221ADDAA101000091MA1999999097901MD1210101+9999OD139900151999OD259900101999REMSYN08206635 23/// /0000 11099 21099 39790 40422 52010 333 55300 20000 60005 91103 91202=
0162066350999992015010123004+47133+007617FM-12+048299999V0201701N001019999999N999999999-01141-01141104261ADDAA101000091MA1999999097911MD1210091+9999OD139900151999OD259900101999REMSYN08206635 23/// /1702 11114 21114 39791 40426 52009 333 55300 20000 60005 91103 91202=
0179066350999992015010200004+47133+007617FM-12+048299999V0202301N000519999999N999999999-01011-01161104171ADDAA101000091AA206000091MA1999999097851MD1810011+9999OD139900211999OD259900151999REMSYN08806635 03/// /2301 11101 21116 39785 40417 58001 60001 333 55300 20000 60005 91104 91203=
0162066350999992015010201004+47133+007617FM-12+048299999V0201901N002619999999N999999999-00721-00881104071ADDAA101000091MA1999999097831MD1710071+9999OD139900461999OD259900311999REMSYN08206635 23/// /1905 11072 21088 39783 40407 57007 333 55300 20000 60005 91109 91206=
0162066350999992015010202004+47133+007617FM-12+048299999V0202001N003619999999N999999999-00371-00511103991ADDAA101000091MA1999999097831MD1710081+9999OD139900571999OD259900411999REMSYN08206635 23/// /2007 11037 21051 39783 40399 57008 333 55300 20000 60005 91111 91208=
0162066350999992015010203004+47133+007617FM-12+048299999V0202101N002619999999N999999999-00671-00851104061ADDAA101000091MA1999999097831MD1710021+9999OD139900571999OD259900411999REMSYN08206635 23/// /2105 11067 21085 39783 40406 57002 333 55300 20000 60005 91111 91208=
0162066350999992015010204004+47133+007617FM-12+048299999V0202001N002119999999N999999999-00851-01001104061ADDAA101000091MA1999999097791MD1710041+9999OD139900411999OD259900361999REMSYN08206635 23/// /2004 11085 21100 39779 40406 57004 333 55300 20000 60005 91108 91207=
0162066350999992015010205004+47133+007617FM-12+048299999V0201901N003619999999N999999999-00671-00851103991ADDAA101000091MA1999999097761MD1710071+9999OD139900411999OD259900361999REMSYN08206635 23/// /1907 11067 21085 39776 40399 57007 333 55300 20000 60005 91108 91207=
0304066350999992015010206004+47133+007617FM-12+048299999V0202001N00261000601CN000200199-00561-00641103981ADDAA101000091AA212000091AA324000091AJ100113100110099AL19900031AY141021AY221021GF109991999999999999999999IA1239KA1240N-01141MA1999999097781MD1510051+9999MW1451REMSYN13606635 01/02 92005 11056 21064 39778 40398 55005 60002 74542 333 21114 3/107 47011 55008 55300 20000 60005 70000 90768 93100 91111 91208=
0162066350999992015010207004+47133+007617FM-12+048299999V0201901N003619999999N999999999-00341-00491103991ADDAA101000091MA1999999097841MD1210051+9999OD139900511999OD259900411999REMSYN08206635 23/// /1907 11034 21049 39784 40399 52005 333 55300 20000 60005 91110 91208=
0162066350999992015010208004+47133+007617FM-12+048299999V0201801N003619999999N999999999-00311-00451104041ADDAA101000091MA1999999097891MD1210131+9999OD139900621999OD259900411999REMSYN08206635 23/// /1807 11031 21045 39789 40404 52013 333 55300 20061 60005 91112 91208=
0162066350999992015010209004+47133+007617FM-12+048299999V0202001N003619999999N999999999-00261-00411104041ADDAA101000091MA1999999097901MD1210121+9999OD139900621999OD259900411999REMSYN08206635 23/// /2007 11026 21041 39790 40404 52012 333 55300 20324 60005 91112 91208=
0162066350999992015010210004+47133+007617FM-12+048299999V0202001N002619999999N999999999-00191-00361104001ADDAA101000091MA1999999097881MD1990041+9999OD139900511999OD259900411999REMSYN08206635 23/// /2005 11019 21036 39788 40400 50004 333 55301 20630 60005 91110 91208=
0162066350999992015010211004+47133+007617FM-12+048299999V0201901N002119999999N999999999-00041-00251103921ADDAA101000091MA1999999097841MD1810051+9999OD139900361999OD259900311999REMSYN08206635 23/// /1904 11004 21025 39784 40392 58005 333 55301 20994 60005 91107 91206=
0296066350999992015010212004+47133+007617FM-12+048299999V0202001N002610033019N001000199+00001-00181103811ADDAA101000091AA206999999AY161021AY221021GA1081+003301071GE19AGL   +99999+99999GF108991081999003301999999MA1999999097741MD1710161+9999MW1601OD139900621999OD259900411999REMSYN10006635 01410 82005 10000 21018 39774 40381 57016 60001 76062 333 55300 20349 60005 88711 91112 91208=EQDQ01  00002PRCP06
0162066350999992015010213004+47133+007617FM-12+048299999V0202401N002619999999N999999999+00081-00101103741ADDAA101000091MA1999999097691MD1710191+9999OD139900361999OD259900311999REMSYN08206635 23/// /2405 10008 21010 39769 40374 57019 333 55300 20317 60005 91107 91206=
0162066350999992015010214004+47133+007617FM-12+048299999V0202201N002619999999N999999999+00121-00091103771ADDAA101000131MA1999999097731MD1510111+9999OD139900411999OD259900311999REMSYN08206635 23/// /2205 10012 21009 39773 40377 55011 333 55300 20155 69915 91108 91206=
0162066350999992015010215004+47133+007617FM-12+048299999V0202201N003119999999N999999999+00091-00041103781ADDAA101000091MA1999999097731MD1310011+9999OD139900461999OD259900361999REMSYN08206635 23/// /2206 10009 21004 39773 40378 53001 333 55300 20054 60005 91109 91207=
0162066350999992015010216004+47133+007617FM-12+048299999V0202401N003119999999N999999999+00091-00021103781ADDAA101000091MA1999999097731MD1210041+9999OD139900461999OD259900361999REMSYN08206635 23/// /2406 10009 21002 39773 40378 52004 333 55300 20018 60005 91109 91207=
0162066350999992015010217004+47133+007617FM-12+048299999V0202001N004119999999N999999999+00131+00011103761ADDAA101000131MA1999999097721MD1510011+9999OD139900511999OD259900411999REMSYN08206635 23/// /2008 10013 20001 39772 40376 55001 333 55300 20000 69915 91110 91208=
0325066350999992015010218004+47133+007617FM-12+048299999V0201801N002610072019N004000199+00131+00021103821ADDAA101000091AA212000231AJ199991999999999AY161021AY221021GA1071+007201041GE19AGL   +99999+99999GF108991071999007201999999IA1279KA1120M+00171MA1999999097781MD1210051+9999MW1601OD139900511999OD259900411999REMSYN11206635 01540 81805 10013 20002 39778 40382 52005 69922 76062 333 10017 43/// 55300 20000 60005 87424 91110 91208=
0162066350999992015010219004+47133+007617FM-12+048299999V0202001N000519999999N999999999+00151+00011103871ADDAA101000091MA1999999097831MD1310101+9999OD139900461999OD259900311999REMSYN08206635 23/// /2001 10015 20001 39783 40387 53010 333 55300 20000 60005 91109 91206=
0162066350999992015010220004+47133+007617FM-12+048299999V0203001N000519999999N999999999+00141+00041103871ADDAA101000091MA1999999097831MD1210111+9999OD139900511999OD259900311999REMSYN08206635 23/// /3001 10014 20004 39783 40387 52011 333 55300 20000 60005 91110 91206=
0162066350999992015010221004+47133+007617FM-12+048299999V0200101N001019999999N999999999+00081+00021103881ADDAA101000091MA1999999097831MD1210051+9999OD139900511999OD259900311999REMSYN08206635 23/// /0102 10008 20002 39783 40388 52005 333 55300 20000 60005 91110 91206=
0162066350999992015010222004+47133+007617FM-12+048299999V0200501N001519999999N999999999+00071+00011103901ADDAA101000091MA1999999097841MD1210011+9999OD139900151999OD259900151999REMSYN08206635 23/// /0503 10007 20001 39784 40390 52001 333 55300 20000 60005 91103 91203=
0162066350999992015010223004+47133+007617FM-12+048299999V0200701N000519999999N999999999+00101+00021103881ADDAA101000091MA1999999097831MD1990001+9999OD139900211999OD259900151999REMSYN08206635 23/// /0701 10010 20002 39783 40388 50000 333 55300 20000 60005 91104 91203=
0179066350999992015010300004+47133+007617FM-12+048299999V0200301N001519999999N999999999+00051+00001103851ADDAA101000091AA206000091MA1999999097791MD1710041+9999OD139900511999OD259900311999REMSYN08806635 03/// /0303 10005 20000 39779 40385 57004 60001 333 55300 20000 60005 91110 91206=
0162066350999992015010301004+47133+007617FM-12+048299999V0203401N000519999999N999999999+00011+00001103841ADDAA101000091MA1999999097771MD1710071+9999OD139900261999OD259900151999REMSYN08206635 23/// /3401 10001 20000 39777 40384 57007 333 55300 20000 60005 91105 91203=
0162066350999992015010302004+47133+007617FM-12+048299999V0203101N000519999999N999999999+00011-00011103831ADDAA101000091MA1999999097761MD1710071+9999OD139900101999OD259900101999REMSYN08206635 23/// /3101 10001 21001 39776 40383 57007 333 55300 20000 60005 91102 91202=
0162066350999992015010303004+47133+007617FM-12+048299999V0201901N000519999999N999999999+00041-00021103721ADDAA101000091MA1999999097671MD1710121+9999OD139900261999OD259900151999REMSYN08206635 23/// /1901 10004 21002 39767 40372 57012 333 55300 20000 60005 91105 91203=
0162066350999992015010304004+47133+007617FM-12+048299999V0201801N001019999999N999999999+00041-00011103661ADDAA101000091MA1999999097611MD1810161+9999OD139900151999OD259900151999REMSYN08206635 23/// /1802 10004 21001 39761 40366 58016 333 55300 20000 60005 91103 91203=
0162066350999992015010305004+47133+007617FM-12+048299999V0202101N001019999999N999999999+00041-00031103601ADDAA101000091MA1999999097551MD1610211+9999OD139900151999OD259900101999REMSYN08206635 23/// /2102 10004 21003 39755 40360 56021 333 55300 20000 60005 91103 91202=
0304066350999992015010306004+47133+007617FM-12+048299999V0202301N00311000301CN000100199+00041-00021103541ADDAA101000091AA212000091AA324000231AJ100093100090099AL19900031AY141021AY241021GF109991999999999999999999IA1279KA1240N+00001MA1999999097501MD1710171+9999MW1451REMSYN13606635 01/01 92306 10004 21002 39750 40354 57017 60002 74544 333 20000 3/100 43009 55002 55300 20000 60005 70002 90768 93100 91107 91206=
0162066350999992015010307004+47133+007617FM-12+048299999V0202201N003119999999N999999999+00041-00031103501ADDAA101000091MA1999999097461MD1810151+9999OD139900411999OD259900311999REMSYN08206635 23/// /2206 10004 21003 39746 40350 58015 333 55300 20000 60005 91108 91206=
0162066350999992015010308004+47133+007617FM-12+048299999V0202201N003119999999N999999999+00091+00021103461ADDAA101000091MA1999999097431MD1710121+9999OD139900511999OD259900411999REMSYN08206635 23/// /2206 10009 20002 39743 40346 57012 333 55300 20025 60005 91110 91208=
0162066350999992015010309004+47133+007617FM-12+048299999V0201901N002619999999N999999999+00131+00011103381ADDAA101000091MA1999999097371MD1710131+9999OD139900511999OD259900411999REMSYN08206635 23/// /1905 10013 20001 39737 40338 57013 333 55300 20122 60005 91110 91208=
0162066350999992015010310004+47133+007617FM-12+048299999V0202101N003119999999N999999999+00161+00061103341ADDAA101000091MA1999999097341MD1710121+9999OD139900461999OD259900361999REMSYN08206635 23/// /2106 10016 20006 39734 40334 57012 333 55300 20270 60005 91109 91207=
0162066350999992015010311004+47133+007617FM-12+048299999V0201901N003119999999N999999999+00181+00041103201ADDAA101000091MA1999999097211MD1710221+9999OD139900511999OD259900411999REMSYN08206635 23/// /1906 10018 20004 39721 40320 57022 333 55300 20331 60005 91110 91208=
0277066350999992015010312004+47133+007617FM-12+048299999V0202401N004610033019N000500199+00221+00071103011ADDAA101000091AA206000091AY161021AY241021GA1081+003301071GE19AGL   +99999+99999GF108991081999003301999999MA1999999097041MD1710331+9999MW1421OD139900571999OD259900461999REMSYN10006635 01405 82409 10022 20007 39704 40301 57033 60001 74264 333 55300 20292 60005 88711 91111 91209=
0162066350999992015010313004+47133+007617FM-12+048299999V0201901N003119999999N999999999+00201+00101102871ADDAA101000531MA1999999096901MD1710441+9999OD139900621999OD259900461999REMSYN08206635 23/// /1906 10020 20010 39690 40287 57044 333 55300 20223 69955 91112 91209=
0162066350999992015010314004+47133+007617FM-12+048299999V0201901N003619999999N999999999+00241+00131102811ADDAA101000331MA1999999096851MD1710361+9999OD139900411999OD259900361999REMSYN08206635 23/// /1907 10024 20013 39685 40281 57036 333 55300 20158 69935 91108 91207=
0162066350999992015010315004+47133+007617FM-12+048299999V0202001N002119999999N999999999+00241+00161102721ADDAA101000131MA1999999096771MD1710271+9999OD139900621999OD259900461999REMSYN08206635 23/// /2004 10024 20016 39677 40272 57027 333 55300 20108 69915 91112 91209=
0162066350999992015010316004+47133+007617FM-12+048299999V0201801N002619999999N999999999+00301+00201102611ADDAA101000331MA1999999096681MD1710221+9999OD139900511999OD259900261999REMSYN08206635 23/// /1805 10030 20020 39668 40261 57022 333 55300 20014 69935 91110 91205=
0162066350999992015010317004+47133+007617FM-12+048299999V0202101N001519999999N999999999+00401+00331102541ADDAA101000231MA1999999096631MD1710221+9999OD139900671999OD259900361999REMSYN08206635 23/// /2103 10040 20033 39663 40254 57022 333 55300 20000 69925 91113 91207=
0325066350999992015010318004+47133+007617FM-12+048299999V0202301N002110012019N000500199+00481+00411102521ADDAA101002031AA212004031AJ199991999999999AY161021AY261021GA1081+001201071GE19AGL   +99999+99999GF108991081999001201999999IA1279KA1120M+00481MA1999999096631MD1710141+9999MW1631OD139900821999OD259900461999REMSYN11206635 01205 82304 10048 20041 39663 40252 57014 60042 76366 333 10048 43/// 55300 20000 60025 88704 91116 91209=
0162066350999992015010319004+47133+007617FM-12+048299999V0202401N004619999999N999999999+00611+00491102461ADDAA101000531MA1999999096601MD1710081+9999OD139900771999OD259900511999REMSYN08206635 23/// /2409 10061 20049 39660 40246 57008 333 55300 20000 69955 91115 91210=
0162066350999992015010320004+47133+007617FM-12+048299999V0202301N007219999999N999999999+00611+00451102461ADDAA101000091MA1999999096601MD1710031+9999OD139901131999OD259900721999REMSYN08206635 23/// /2314 10061 20045 39660 40246 57003 333 55300 20000 60005 91122 91214=
0162066350999992015010321004+47133+007617FM-12+048299999V0202201N006719999999N999999999+00671+00481102441ADDAA101000091MA1999999096601MD1510031+9999OD139901181999OD259900821999REMSYN08206635 23/// /2213 10067 20048 39660 40244 55003 333 55300 20000 60005 91123 91216=
0162066350999992015010322004+47133+007617FM-12+048299999V0202401N007719999999N999999999+00761+00541102461ADDAA101000531MA1999999096631MD1310031+9999OD139901181999OD259900771999REMSYN08206635 23/// /2415 10076 20054 39663 40246 53003 333 55300 20000 69955 91123 91215=
0162066350999992015010323004+47133+007617FM-12+048299999V0202401N008819999999N999999999+00901+00561102521ADDAA101000731MA1999999096721MD1210121+9999OD139901291999OD259900881999REMSYN08206635 23/// /2417 10090 20056 39672 40252 52012 333 55300 20000 69975 91125 91217=
0179066350999992015010400004+47133+007617FM-12+048299999V0202101N004619999999N999999999+00771+00631102611ADDAA101000831AA206003031MA1999999096781MD1210181+9999OD139901291999OD259900881999REMSYN08806635 03/// /2109 10077 20063 39678 40261 52018 60031 333 55300 20000 69985 91125 91217=
0162066350999992015010401004+47133+007617FM-12+048299999V0202001N004119999999N999999999+00751+00641102651ADDAA101000631MA1999999096811MD1110181+9999OD139900621999OD259900461999REMSYN08206635 23/// /2008 10075 20064 39681 40265 51018 333 55300 20000 69965 91112 91209=
0162066350999992015010402004+47133+007617FM-12+048299999V0201901N004619999999N999999999+00711+00601102681ADDAA101000631MA1999999096831MD1110111+9999OD139900571999OD259900461999REMSYN08206635 23/// /1909 10071 20060 39683 40268 51011 333 55300 20000 69965 91111 91209=
0162066350999992015010403004+47133+007617FM-12+048299999V0202801N000519999999N999999999+00641+00571102711ADDAA101000631MA1999999096841MD1210061+9999OD139900621999OD259900461999REMSYN08206635 23/// /2801 10064 20057 39684 40271 52006 333 55300 20000 69965 91112 91209=
0162066350999992015010404004+47133+007617FM-12+048299999V0202001N005119999999N999999999+00781+00601102691ADDAA101000931MA1999999096851MD1210041+9999OD139900821999OD259900511999REMSYN08206635 23/// /2010 10078 20060 39685 40269 52004 333 55300 20000 69995 91116 91210=
0162066350999992015010405004+47133+007617FM-12+048299999V0202001N003619999999N999999999+00741+00591102771ADDAA101000091MA1999999096921MD1210091+9999OD139900721999OD259900511999REMSYN08206635 23/// /2007 10074 20059 39692 40277 52009 333 55300 20000 60005 91114 91210=
0348066350999992015010406004+47133+007617FM-12+048299999V0200301N003610150019N005000199+00551+00311102951ADDAA101000091AA212005031AA324008831AJ199999999999999AL19900031AY161021AY211021GA1061+015001061GE19AGL   +99999+99999GF106991061999015001999999IA1259KA1240N+00401MA1999999097051MD1210211+9999MW1011REMSYN14206635 01750 60307 10055 20031 39705 40295 52021 60052 70161 333 20040 3/002 41998 55000 55300 20000 60005 70088 86650 90768 93100 91116 91210=
0162066350999992015010407004+47133+007617FM-12+048299999V0200801N002619999999N999999999+00441+00211103111ADDAA101000091MA1999999097181MD1310331+9999OD139900821999OD259900511999REMSYN08206635 23/// /0805 10044 20021 39718 40311 53033 333 55300 20000 60005 91116 91210=
0162066350999992015010408004+47133+007617FM-12+048299999V0200401N003119999999N999999999+00341+00151103241ADDAA101000091MA1999999097281MD1219999+9999OD139900461999OD259900311999REMSYN08206635 23/// /0406 10034 20015 39728 40324 52/// 333 55300 20043 60005 91109 91206=
0162066350999992015010409004+47133+007617FM-12+048299999V0200601N004119999999N999999999+00351+00131103381ADDAA101000091MA1999999097411MD1210361+9999OD139900821999OD259900511999REMSYN08206635 23/// /0608 10035 20013 39741 40338 52036 333 55300 20216 60005 91116 91210=
0162066350999992015010410004+47133+007617FM-12+048299999V0201101N002119999999N999999999+00501+00211103411ADDAA101000091MA1999999097471MD1210291+9999OD139900511999OD259900361999REMSYN08206635 23/// /1104 10050 20021 39747 40341 52029 333 55307 20774 60005 91110 91207=
0162066350999992015010411004+47133+007617FM-12+048299999V0200601N002619999999N999999999+00501+00121103461ADDAA101000091MA1999999097521MD1110241+9999OD139900361999OD259900261999REMSYN08206635 23/// /0605 10050 20012 39752 40346 51024 333 55309 21199 60005 91107 91205=
0249066350999992015010412004+47133+007617FM-12+048299999V0201101N001019999999N005000199+00551+00011103391ADDAA101000091AA206000091GA1021+054001001GE19AGL   +99999+99999GF102991021999054001999999MA1999999097471MD1990061+9999OD139900821999OD259900511999REMSYN09406635 02950 21102 10055 20001 39747 40339 50006 60001 333 55310 21382 60005 82068 91116 91210=
0162066350999992015010413004+47133+007617FM-12+048299999V0203401N001019999999N999999999+00611+00101103361ADDAA101000091MA1999999097451MD1810021+9999OD139900261999OD259900101999REMSYN08206635 23/// /3402 10061 20010 39745 40336 58002 333 55310 21282 60005 91105 91202=
0162066350999992015010414004+47133+007617FM-12+048299999V0200301N002119999999N999999999+00601+00071103451ADDAA101000091MA1999999097531MD1310011+9999OD139900411999OD259900261999REMSYN08206635 23/// /0304 10060 20007 39753 40345 53001 333 55310 21030 60005 91108 91205=
0162066350999992015010415004+47133+007617FM-12+048299999V0200601N005719999999N999999999+00401-00131103601ADDAA101000091MA1999999097631MD1210161+9999OD139900821999OD259900571999REMSYN08206635 23/// /0611 10040 21013 39763 40360 52016 333 55302 20277 60005 91116 91211=
0162066350999992015010416004+47133+007617FM-12+048299999V0200901N002619999999N999999999+00311-00211103711ADDAA101000091MA1999999097721MD1310271+9999OD139900771999OD259900571999REMSYN08206635 23/// /0905 10031 21021 39772 40371 53027 333 55300 20050 60005 91115 91211=
0162066350999992015010417004+47133+007617FM-12+048299999V0200901N002619999999N999999999+00211-00231103781ADDAA101000091MA1999999097761MD1110231+9999OD139900411999OD259900311999REMSYN08206635 23/// /0905 10021 21023 39776 40378 51023 333 55300 20000 60005 91108 91206=
0274066350999992015010418004+47133+007617FM-12+048299999V0201101N002619999999N009000199+00101-00251103841ADDAA101000091AA212000091GA1011+036001031GE19AGL   +99999+99999GF101991011999036001999999KA1120M+00631MA1999999097791MD1110161+9999OD139900821999OD259900571999REMSYN10606635 02959 11105 10010 21025 39779 40384 51016 60002 333 10063 32/// 55300 20000 60005 81362 91116 91211=
0162066350999992015010419004+47133+007617FM-12+048299999V0200501N000519999999N999999999-00041-00241103881ADDAA101000091MA1999999097801MD1110081+9999OD139900411999OD259900311999REMSYN08206635 23/// /0501 11004 21024 39780 40388 51008 333 55300 20000 60005 91108 91206=
0162066350999992015010420004+47133+007617FM-12+048299999V0209999C000019999999N999999999-00151-00271103931ADDAA101000091MA1999999097821MD1110061+9999OD139900211999OD259900101999REMSYN08206635 23/// /0000 11015 21027 39782 40393 51006 333 55300 20000 60005 91104 91202=
0162066350999992015010421004+47133+007617FM-12+048299999V0200501N000519999999N999999999-00231-00291103991ADDAA101000091MA1999999097861MD1310071+9999OD139900411999OD259900311999REMSYN08206635 23/// /0501 11023 21029 39786 40399 53007 333 55300 20000 60005 91108 91206=
0162066350999992015010422004+47133+007617FM-12+048299999V0209999C000019999999N999999999-00261-00331103971ADDAA101000091MA1999999097841MD1210041+9999OD139900101999OD259900051999REMSYN08206635 23/// /0000 11026 21033 39784 40397 52004 333 55300 20000 60005 91102 91201=
0162066350999992015010423004+47133+007617FM-12+048299999V0209999C000019999999N999999999-00281-00311104001ADDAA101000091MA1999999097861MD1210041+9999OD139900101999OD259900051999REMSYN08206635 23/// /0000 11028 21031 39786 40400 52004 333 55300 20000 60005 91102 91201=
0179066350999992015010500004+47133+007617FM-12+048299999V0209999C000019999999N999999999-00381-00431103991ADDAA101000091AA206000091MA1999999097831MD1710031+9999OD139900411999OD259900311999REMSYN08806635 03/// /0000 11038 21043 39783 40399 57003 60001 333 55300 20000 60005 91108 91206=
0162066350999992015010501004+47133+007617FM-12+048299999V0201101N000519999999N999999999-00371-00431103991ADDAA101000091MA1999999097831MD1710011+9999OD139900101999OD259900051999REMSYN08206635 23/// /1101 11037 21043 39783 40399 57001 333 55300 20000 60005 91102 91201=
0162066350999992015010502004+47133+007617FM-12+048299999V0201401N000519999999N999999999-00381-00471103971ADDAA101000091MA1999999097811MD1710051+9999OD139900101999OD259900051999REMSYN08206635 23/// /1401 11038 21047 39781 40397 57005 333 55300 20000 60005 91102 91201=
0162066350999992015010503004+47133+007617FM-12+048299999V0203401N000519999999N999999999-00391-00451103931ADDAA101000091MA1999999097771MD1710061+9999OD139900151999OD259900101999REMSYN08206635 23/// /3401 11039 21045 39777 40393 57006 333 55300 20000 60005 91103 91202=
0162066350999992015010504004+47133+007617FM-12+048299999V0209999C000019999999N999999999-00421-00491103881ADDAA101000091MA1999999097721MD1710111+9999OD139900051999OD259900051999REMSYN08206635 23/// /0000 11042 21049 39772 40388 57011 333 55300 20000 60005 91101 91201=
0162066350999992015010505004+47133+007617FM-12+048299999V0201201N001019999999N999999999-00431-00511103841ADDAA101000091MA1999999097681MD1710131+9999OD139900101999OD259900101999REMSYN08206635 23/// /1202 11043 21051 39768 40384 57013 333 55300 20000 60005 91102 91202=
0275066350999992015010506004+47133+007617FM-12+048299999V0209999C000019999999N007000199-00481-00581103871ADDAA101000091AA212000091AA324000091AL19900031AY101021AY201021GF100995999999999999999999KA1240N-00481MA1999999097691MD1710081+9999MW1101REMSYN13006635 01/57 00000 11048 21058 39769 40387 57008 60002 71000 333 21048 34107 55049 55300 20000 60005 70000 90768 93100 91103 91202=
0162066350999992015010507004+47133+007617FM-12+048299999V0209999C000019999999N999999999-00431-00521103841ADDAA101000091MA1999999097681MD1710041+9999OD139900051999OD259900051999REMSYN08206635 23/// /0000 11043 21052 39768 40384 57004 333 55300 20000 60005 91101 91201=
0162066350999992015010508004+47133+007617FM-12+048299999V0200101N000519999999N999999999-00441-00541103861ADDAA101000091MA1999999097691MD1210011+9999OD139900051999OD259900051999REMSYN08206635 23/// /0101 11044 21054 39769 40386 52001 333 55301 20050 60005 91101 91201=
0162066350999992015010509004+47133+007617FM-12+048299999V0200701N000519999999N999999999-00331-00441103821ADDAA101000091MA1999999097681MD1710011+9999OD139900101999OD259900051999REMSYN08206635 23/// /0701 11033 21044 39768 40382 57001 333 55310 20544 60005 91102 91201=
0162066350999992015010510004+47133+007617FM-12+048299999V0200301N001019999999N999999999-00171-00291103771ADDAA101000091MA1999999097671MD1710011+9999OD139900151999OD259900101999REMSYN08206635 23/// /0302 11017 21029 39767 40377 57001 333 55310 20947 60005 91103 91202=
0162066350999992015010511004+47133+007617FM-12+048299999V0203301N000519999999N999999999-00031-00251103651ADDAA101000091MA1999999097591MD1710101+9999OD139900151999OD259900101999REMSYN08206635 23/// /3301 11003 21025 39759 40365 57010 333 55310 21213 60005 91103 91202=
0233066350999992015010512004+47133+007617FM-12+048299999V0200901N000519999999N010000199+00091-00221103521ADDAA101000091AA206000091AY101021AY201021GF100995999999999999999999MA1999999097491MD1710191+9999MW1101OD139900151999OD259900101999REMSYN09406635 01/60 00901 10009 21022 39749 40352 57019 60001 71000 333 55310 21328 60005 91103 91202=
0162066350999992015010513004+47133+007617FM-12+048299999V0202101N000519999999N999999999+00201-00181103391ADDAA101000091MA1999999097391MD1710281+9999OD139900151999OD259900051999REMSYN08206635 23/// /2101 10020 21018 39739 40339 57028 333 55310 21271 60005 91103 91201=
0162066350999992015010514004+47133+007617FM-12+048299999V0202301N000519999999N999999999+00291-00221103301ADDAA101000091MA1999999097331MD1610261+9999OD139900101999OD259900051999REMSYN08206635 23/// /2301 10029 21022 39733 40330 56026 333 55310 21026 60005 91102 91201=
0162066350999992015010515004+47133+007617FM-12+048299999V0203401N000519999999N999999999+00251-00181103301ADDAA101000091MA1999999097321MD1610171+9999OD139900151999OD259900051999REMSYN08206635 23/// /3401 10025 21018 39732 40330 56017 333 55310 20612 60005 91103 91201=
0162066350999992015010516004+47133+007617FM-12+048299999V0201201N000519999999N999999999-00021-00271103331ADDAA101000091MA1999999097291MD1610101+9999OD139900151999OD259900101999REMSYN08206635 23/// /1201 11002 21027 39729 40333 56010 333 55306 20097 60005 91103 91202=
0162066350999992015010517004+47133+007617FM-12+048299999V0200201N000519999999N999999999-00101-00241103361ADDAA101000091MA1999999097301MD1710031+9999OD139900101999OD259900051999REMSYN08206635 23/// /0201 11010 21024 39730 40336 57003 333 55300 20000 60005 91102 91201=
0258066350999992015010518004+47133+007617FM-12+048299999V0201201N000519999999N012000199-00121-00261103341ADDAA101000091AA212000091AY101021AY201021GF100995999999999999999999KA1120M+00321MA1999999097271MD1710051+9999MW1101OD139900211999OD259900101999REMSYN10606635 01/62 01201 11012 21026 39727 40334 57005 60002 71000 333 10032 31/// 55300 20000 60005 91104 91202=
0162066350999992015010519004+47133+007617FM-12+048299999V0201201N000519999999N999999999-00271-00361103341ADDAA101000091MA1999999097241MD1710051+9999OD139900101999OD259900051999REMSYN08206635 23/// /1201 11027 21036 39724 40334 57005 333 55300 20000 60005 91102 91201=
0162066350999992015010520004+47133+007617FM-12+048299999V0203401N000519999999N999999999-00271-00341103321ADDAA101000091MA1999999097221MD1710081+9999OD139900051999OD259900051999REMSYN08206635 23/// /3401 11027 21034 39722 40332 57008 333 55300 20000 60005 91101 91201=
0162066350999992015010521004+47133+007617FM-12+048299999V0209999C000019999999N999999999-00321-00391103311ADDAA101000091MA1999999097201MD1710071+9999OD139900151999OD259900101999REMSYN08206635 23/// /0000 11032 21039 39720 40331 57007 333 55300 20000 60005 91103 91202=
0162066350999992015010522004+47133+007617FM-12+048299999V0201601N000519999999N999999999-00311-00401103281ADDAA101000091MA1999999097181MD1710061+9999OD139900101999OD259900051999REMSYN08206635 23/// /1601 11031 21040 39718 40328 57006 333 55300 20000 60005 91102 91201=
0162066350999992015010523004+47133+007617FM-12+048299999V0202201N001019999999N999999999-00351-00441103261ADDAA101000091MA1999999097151MD1710071+9999OD139900151999OD259900101999REMSYN08206635 23/// /2202 11035 21044 39715 40326 57007 333 55300 20000 60005 91103 91202=
0179066350999992015010600004+47133+007617FM-12+048299999V0209999C000019999999N999999999-00331-00421103191ADDAA101000091AA206000091MA1999999097091MD1810111+9999OD139900151999OD259900101999REMSYN08806635 03/// /0000 11033 21042 39709 40319 58011 60001 333 55300 20000 60005 91103 91202=
0162066350999992015010601004+47133+007617FM-12+048299999V0209999C000019999999N999999999-00371-00431103141ADDAA101000091MA1999999097031MD1810151+9999OD139900051999OD259900051999REMSYN08206635 23/// /0000 11037 21043 39703 40314 58015 333 55300 20000 60005 91101 91201=
0162066350999992015010602004+47133+007617FM-12+048299999V0203401N000519999999N999999999-00361-00441103121ADDAA101000091MA1999999097011MD1710141+9999OD139900151999OD259900101999REMSYN08206635 23/// /3401 11036 21044 39701 40312 57014 333 55300 20000 60005 91103 91202=
0162066350999992015010603004+47133+007617FM-12+048299999V0201601N001019999999N999999999-00471-00571103071ADDAA101000091MA1999999096941MD1710151+9999OD139900151999OD259900101999REMSYN08206635 23/// /1602 11047 21057 39694 40307 57015 333 55300 20000 60005 91103 91202=
0162066350999992015010604004+47133+007617FM-12+048299999V0201301N000519999999N999999999-00431-00541102991ADDAA101000091MA1999999096881MD1710151+9999OD139900261999OD259900151999REMSYN08206635 23/// /1301 11043 21054 39688 40299 57015 333 55300 20000 60005 91105 91203=
0162066350999992015010605004+47133+007617FM-12+048299999V0200301N000519999999N999999999-00451-00541102981ADDAA101000091MA1999999096861MD1610151+9999OD139900101999OD259900101999REMSYN08206635 23/// /0301 11045 21054 39686 40298 56015 333 55300 20000 60005 91102 91202=
0275066350999992015010606004+47133+007617FM-12+048299999V0200101N000519999999N012000199-00511-00601102981ADDAA101000091AA212000091AA324000091AL19900031AY101021AY201021GF100995999999999999999999KA1240N-00521MA1999999096851MD1710091+9999MW1101REMSYN13006635 01/62 00101 11051 21060 39685 40298 57009 60002 71000 333 21052 34108 55077 55300 20000 60005 70000 90768 93100 91105 91203=
0162066350999992015010607004+47133+007617FM-12+048299999V0200401N001019999999N999999999-00551-00641102991ADDAA101000091MA1999999096851MD1710031+9999OD139900101999OD259900101999REMSYN08206635 23/// /0402 11055 21064 39685 40299 57003 333 55300 20000 60005 91102 91202=
0162066350999992015010608004+47133+007617FM-12+048299999V0209999C000019999999N999999999-00551-00551103001ADDAA101000091MA1999999096861MD1510001+9999OD139900101999OD259900051999REMSYN08206635 23/// /0000 11055 21055 39686 40300 55000 333 55300 20065 60005 91102 91201=
0162066350999992015010609004+47133+007617FM-12+048299999V0209999C000019999999N999999999-00491-00501102991ADDAA101000091MA1999999096861MD1310011+9999OD139900101999OD259900101999REMSYN08206635 23/// /0000 11049 21050 39686 40299 53001 333 55300 20277 60005 91102 91202=
0162066350999992015010610004+47133+007617FM-12+048299999V0209999C000019999999N999999999-00361-00371102961ADDAA101000091MA1999999096861MD1210011+9999OD139900101999OD259900051999REMSYN08206635 23/// /0000 11036 21037 39686 40296 52001 333 55300 20464 60005 91102 91201=
0162066350999992015010611004+47133+007617FM-12+048299999V0202501N001019999999N999999999-00151-00281102851ADDAA101000091MA1999999096811MD1710051+9999OD139900151999OD259900101999REMSYN08206635 23/// /2502 11015 21028 39681 40285 57005 333 55306 20950 60005 91103 91202=
0277066350999992015010612004+47133+007617FM-12+048299999V0203001N001019999999N000400199-00041-00171102751ADDAA101000091AA206000091AY141021AY211021GA1011+003301071GE19AGL   +99999+99999GF102991011999003301999999MA1999999096741MD1710121+9999MW1401OD139900151999OD259900101999REMSYN10006635 01404 23002 11004 21017 39674 40275 57012 60001 74041 333 55310 21307 60005 81711 91103 91202=
0162066350999992015010613004+47133+007617FM-12+048299999V0202901N001019999999N999999999+00071-00141102641ADDAA101000091MA1999999096661MD1810201+9999OD139900211999OD259900151999REMSYN08206635 23/// /2902 10007 21014 39666 40264 58020 333 55310 21170 60005 91104 91203=
0162066350999992015010614004+47133+007617FM-12+048299999V0203601N001019999999N999999999-00021-00121102651ADDAA101000091MA1999999096651MD1710161+9999OD139900261999OD259900151999REMSYN08206635 23/// /3602 11002 21012 39665 40265 57016 333 55310 20943 60005 91105 91203=
0162066350999992015010615004+47133+007617FM-12+048299999V0200201N000519999999N999999999-00061-00131102691ADDAA101000091MA1999999096681MD1510061+9999OD139900261999OD259900151999REMSYN08206635 23/// /0201 11006 21013 39668 40269 55006 333 55306 20475 60005 91105 91203=
0162066350999992015010616004+47133+007617FM-12+048299999V0200101N000519999999N999999999-00091-00151102721ADDAA101000091MA1999999096701MD1210041+9999OD139900151999OD259900101999REMSYN08206635 23/// /0101 11009 21015 39670 40272 52004 333 55300 20119 60005 91103 91202=
0162066350999992015010617004+47133+007617FM-12+048299999V0203501N001519999999N999999999-00261-00261102821ADDAA101000091MA1999999096751MD1310101+9999OD139900211999OD259900151999REMSYN08206635 23/// /3503 11026 21026 39675 40282 53010 333 55300 20000 60005 91104 91203=
0258066350999992015010618004+47133+007617FM-12+048299999V0200901N00051000301CN000049199-00271-00271102871ADDAA101000091AA212000091AY141021AY201021GF109991999999999999999999KA1120M+00071MA1999999096801MD1210121+9999MW1471OD139900261999OD259900151999REMSYN10606635 01/90 90901 11027 21027 39680 40287 52012 60002 74740 333 10007 34/// 55300 20000 60005 91105 91203=
0162066350999992015010619004+47133+007617FM-12+048299999V0201901N001019999999N999999999-00331-00341102951ADDAA101000091MA1999999096861MD1210161+9999OD139900151999OD259900101999REMSYN08206635 23/// /1902 11033 21034 39686 40295 52016 333 55300 20000 60005 91103 91202=
0162066350999992015010620004+47133+007617FM-12+048299999V0201201N000519999999N999999999-00381-00381102971ADDAA101000091MA1999999096871MD1210121+9999OD139900211999OD259900101999REMSYN08206635 23/// /1201 11038 21038 39687 40297 52012 333 55300 20000 60005 91104 91202=
0162066350999992015010621004+47133+007617FM-12+048299999V0200901N000519999999N999999999-00381-00381103071ADDAA101000091MA1999999096961MD1210161+9999OD139900211999OD259900101999REMSYN08206635 23/// /0901 11038 21038 39696 40307 52016 333 55300 20000 60005 91104 91202=
0162066350999992015010622004+47133+007617FM-12+048299999V0202401N001519999999N999999999-00381-00451103121ADDAA101000091MA1999999097011MD1210151+9999OD139900151999OD259900151999REMSYN08206635 23/// /2403 11038 21045 39701 40312 52015 333 55300 20000 60005 91103 91203=
0162066350999992015010623004+47133+007617FM-12+048299999V0202301N000519999999N999999999-00421-00461103181ADDAA101000091MA1999999097061MD1210191+9999OD139900151999OD259900101999REMSYN08206635 23/// /2301 11042 21046 39706 40318 52019 333 55300 20000 60005 91103 91202=
0179066350999992015010700004+47133+007617FM-12+048299999V0202201N001519999999N999999999-00381-00421103171ADDAA101000091AA206000091MA1999999097061MD1210101+9999OD139900261999OD259900211999REMSYN08806635 03/// /2203 11038 21042 39706 40317 52010 60001 333 55300 20000 60005 91105 91204=
0162066350999992015010701004+47133+007617FM-12+048299999V0201701N001519999999N999999999-00211-00291103201ADDAA101000091MA1999999097121MD1210111+9999OD139900261999OD259900211999REMSYN08206635 23/// /1703 11021 21029 39712 40320 52011 333 55300 20000 60005 91105 91204=
0162066350999992015010702004+47133+007617FM-12+048299999V0202401N001519999999N999999999-00251-00371103271ADDAA101000091MA1999999097181MD1210121+9999OD139900261999OD259900211999REMSYN08206635 23/// /2403 11025 21037 39718 40327 52012 333 55300 20000 60005 91105 91204=
0162066350999992015010703004+47133+007617FM-12+048299999V0202101N000519999999N999999999-00291-00401103311ADDAA101000091MA1999999097211MD1210151+9999OD139900261999OD259900211999REMSYN08206635 23/// /2101 11029 21040 39721 40331 52015 333 55300 20000 60005 91105 91204=
0162066350999992015010704004+47133+007617FM-12+048299999V0201501N000519999999N999999999-00241-00241103281ADDAA101000091MA1999999097191MD1990071+9999OD139900211999OD259900151999REMSYN08206635 23/// /1501 11024 21024 39719 40328 50007 333 55300 20000 60005 91104 91203=
0162066350999992015010705004+47133+007617FM-12+048299999V0202101N000519999999N999999999-00251-00251103291ADDAA101000091MA1999999097201MD1210021+9999OD139900211999OD259900151999REMSYN08206635 23/// /2101 11025 21025 39720 40329 52002 333 55300 20000 60005 91104 91203=
0275066350999992015010706004+47133+007617FM-12+048299999V0202101N00261000301CN000100199-00291-00311103341ADDAA101000091AA212000091AA324000091AL19900031AY141021AY241021GF109991999999999999999999KA1240N-00441MA1999999097241MD1310031+9999MW1451REMSYN13006635 01/01 92105 11029 21031 39724 40334 53003 60002 74544 333 21044 34105 55043 55300 20000 60005 70000 90768 93100 91107 91205=
0162066350999992015010707004+47133+007617FM-12+048299999V0201801N001019999999N999999999-00251-00331103401ADDAA101000091MA1999999097301MD1210111+9999OD139900361999OD259900261999REMSYN08206635 23/// /1802 11025 21033 39730 40340 52011 333 55300 20000 60005 91107 91205=
0162066350999992015010708004+47133+007617FM-12+048299999V0202001N002119999999N999999999-00151-00301103411ADDAA101000091MA1999999097331MD1210131+9999OD139900311999OD259900211999REMSYN08206635 23/// /2004 11015 21030 39733 40341 52013 333 55300 20036 60005 91106 91204=
0162066350999992015010709004+47133+007617FM-12+048299999V0201301N000519999999N999999999-00121-00231103411ADDAA101000091MA1999999097341MD1210101+9999OD139900361999OD259900261999REMSYN08206635 23/// /1301 11012 21023 39734 40341 52010 333 55300 20245 60005 91107 91205=
0162066350999992015010710004+47133+007617FM-12+048299999V0202301N000519999999N999999999+00001-00161103421ADDAA101000091MA1999999097381MD1210081+9999OD139900151999OD259900101999REMSYN08206635 23/// /2301 10000 21016 39738 40342 52008 333 55301 20522 60005 91103 91202=
0162066350999992015010711004+47133+007617FM-12+048299999V0202501N002119999999N999999999+00161-00051103331ADDAA101000091MA1999999097331MD1990001+9999OD139900311999OD259900211999REMSYN08206635 23/// /2504 10016 21005 39733 40333 50000 333 55304 20925 60005 91106 91204=
0277066350999992015010712004+47133+007617FM-12+048299999V0202601N002119999999N001000199+00241-00021103251ADDAA101000091AA206000091AY141021AY221021GA1021+036001031GE19AGL   +99999+99999GF103991021999036001999999MA1999999097271MD1710071+9999MW1401OD139900361999OD259900261999REMSYN10006635 01910 32604 10024 21002 39727 40325 57007 60001 74042 333 55308 21030 60005 82362 91107 91205=
0162066350999992015010713004+47133+007617FM-12+048299999V0203001N000519999999N999999999+00321+00051103171ADDAA101000091MA1999999097211MD1610171+9999OD139900261999OD259900151999REMSYN08206635 23/// /3001 10032 20005 39721 40317 56017 333 55310 21253 60005 91105 91203=
0162066350999992015010714004+47133+007617FM-12+048299999V0200101N001519999999N999999999+00291+00131103181ADDAA101000091MA1999999097211MD1710121+9999OD139900261999OD259900151999REMSYN08206635 23/// /0103 10029 20013 39721 40318 57012 333 55310 20983 60005 91105 91203=
0162066350999992015010715004+47133+007617FM-12+048299999V0200301N001019999999N999999999+00191+00051103221ADDAA101000091MA1999999097231MD1510041+9999OD139900261999OD259900211999REMSYN08206635 23/// /0302 10019 20005 39723 40322 55004 333 55310 20565 60005 91105 91204=
0162066350999992015010716004+47133+007617FM-12+048299999V0200501N001019999999N999999999+00031-00041103281ADDAA101000091MA1999999097251MD1210041+9999OD139900151999OD259900151999REMSYN08206635 23/// /0502 10003 21004 39725 40328 52004 333 55304 20097 60005 91103 91203=
0162066350999992015010717004+47133+007617FM-12+048299999V0200501N000519999999N999999999-00021-00111103341ADDAA101000091MA1999999097301MD1210091+9999OD139900101999OD259900101999REMSYN08206635 23/// /0501 11002 21011 39730 40334 52009 333 55300 20000 60005 91102 91202=
0217066350999992015010718004+47133+007617FM-12+048299999V0200401N00101000301CN000049199-00121-00131103431ADDAA101000091AA212000091AY141021AY221021GF109991999999999999999999MA1999999097361MD1210131+9999MW1471REMSYN10606635 01/90 90402 11012 21013 39736 40343 52013 60002 74742 333 10032 32/// 55300 20000 60005 91105 91204=
0162066350999992015010719004+47133+007617FM-12+048299999V0203401N001019999999N999999999-00131-00131103431ADDAA101000091MA1999999097361MD1210111+9999OD139900151999OD259900101999REMSYN08206635 23/// /3402 11013 21013 39736 40343 52011 333 55300 20000 60005 91103 91202=
0162066350999992015010720004+47133+007617FM-12+048299999V0200501N000519999999N999999999-00201-00201103481ADDAA101000091MA1999999097391MD1210091+9999OD139900211999OD259900151999REMSYN08206635 23/// /0501 11020 21020 39739 40348 52009 333 55300 20000 60005 91104 91203=
0162066350999992015010721004+47133+007617FM-12+048299999V0202201N001019999999N999999999-00191-00221103531ADDAA101000091MA1999999097441MD1210081+9999OD139900211999OD259900151999REMSYN08206635 23/// /2202 11019 21022 39744 40353 52008 333 55300 20000 60005 91104 91203=
0162066350999992015010722004+47133+007617FM-12+048299999V0202101N001019999999N999999999-00121-00211103551ADDAA101000091MA1999999097471MD1210111+9999OD139900151999OD259900101999REMSYN08206635 23/// /2102 11012 21021 39747 40355 52011 333 55300 20000 60005 91103 91202=
0162066350999992015010723004+47133+007617FM-12+048299999V0201701N000519999999N999999999-00161-00221103581ADDAA101000091MA1999999097491MD1210101+9999OD139900151999OD259900101999REMSYN08206635 23/// /1701 11016 21022 39749 40358 52010 333 55300 20000 60005 91103 91202=
0179066350999992015010800004+47133+007617FM-12+048299999V0203301N000519999999N999999999-00151-00201103581ADDAA101000091AA206000091MA1999999097491MD1210051+9999OD139900261999OD259900151999REMSYN08806635 03/// /3301 11015 21020 39749 40358 52005 60001 333 55300 20000 60005 91105 91203=
0162066350999992015010801004+47133+007617FM-12+048299999V0209999C000019999999N999999999-00271-00271103581ADDAA101000091MA1999999097471MD1510001+9999OD139900151999OD259900101999REMSYN08206635 23/// /0000 11027 21027 39747 40358 55000 333 55300 20000 60005 91103 91202=
0181066350999992015010802004+47133+007617FM-12+048299999V0203401N001519999999N999999999-00241-00261103601ADDAA101000091MA1999999097491MD1290029+9999OD139900261999OD259900151999REMSYN08206635 23/// /3403 11024 21026 39749 40360 53000 333 55300 20000 60005 91105 91203=EQDQ010     3APC3  
0162066350999992015010803004+47133+007617FM-12+048299999V0201901N001019999999N999999999-00131-00251103581ADDAA101000091MA1999999097501MD1210011+9999OD139900261999OD259900151999REMSYN08206635 23/// /1902 11013 21025 39750 40358 52001 333 55300 20000 60005 91105 91203=
0162066350999992015010804004+47133+007617FM-12+048299999V0201801N000519999999N999999999-00171-00261103581ADDAA101000091MA1999999097491MD1990021+9999OD139900311999OD259900151999REMSYN08206635 23/// /1801 11017 21026 39749 40358 50002 333 55300 20000 60005 91106 91203=
0162066350999992015010805004+47133+007617FM-12+048299999V0200101N001019999999N999999999-00201-00281103581ADDAA101000091MA1999999097481MD1710011+9999OD139900151999OD259900101999REMSYN08206635 23/// /0102 11020 21028 39748 40358 57001 333 55300 20000 60005 91103 91202=
0291066350999992015010806004+47133+007617FM-12+048299999V0202101N000519999999N020000199-00171-00301103551ADDAA101000091AA212000091AA324000091AL19900031GA1011+015001031GE19AGL   +99999+99999GF101991011999015001999999KA1240N-00311MA1999999097461MD1710041+9999REMSYN13006635 02770 12101 11017 21030 39746 40355 57004 60002 333 21031 34104 55046 55300 20000 60005 70000 81350 90768 93100 91106 91203=
0181066350999992015010807004+47133+007617FM-12+048299999V0202701N000519999999N999999999-00151-00301103581ADDAA101000091MA1999999097491MD1490001+9999OD139900261999OD259900101999REMSYN08206635 23/// /2701 11015 21030 39749 40358 53000 333 55300 20000 60005 91105 91202=EQDQ013     3APCTEN
0162066350999992015010808004+47133+007617FM-12+048299999V0202001N001519999999N999999999-00101-00221103551ADDAA101000091MA1999999097481MD1510001+9999OD139900261999OD259900151999REMSYN08206635 23/// /2003 11010 21022 39748 40355 55000 333 55300 20090 60005 91105 91203=
0162066350999992015010809004+47133+007617FM-12+048299999V0201501N000519999999N999999999+00051-00111103501ADDAA101000091MA1999999097461MD1990001+9999OD139900361999OD259900311999REMSYN08206635 23/// /1501 10005 21011 39746 40350 50000 333 55300 20439 60005 91107 91206=
0162066350999992015010810004+47133+007617FM-12+048299999V0201701N000519999999N999999999+00131-00041103471ADDAA101000091MA1999999097451MD1710041+9999OD139900261999OD259900211999REMSYN08206635 23/// /1701 10013 21004 39745 40347 57004 333 55301 20450 60005 91105 91204=
0162066350999992015010811004+47133+007617FM-12+048299999V0202001N003119999999N999999999+00331-00101103391ADDAA101000091MA1999999097421MD1710061+9999OD139900361999OD259900311999REMSYN08206635 23/// /2006 10033 21010 39742 40339 57006 333 55306 20799 60005 91107 91206=
0249066350999992015010812004+47133+007617FM-12+048299999V0202101N002119999999N025000199+00451-00021103311ADDAA101000091AA206000091GA1031+013201031GE19AGL   +99999+99999GF103991031999013201999999MA1999999097371MD1710091+9999OD139900411999OD259900311999REMSYN09406635 02675 32104 10045 21002 39737 40331 57009 60001 333 55310 21030 60005 83344 91108 91206=
0162066350999992015010813004+47133+007617FM-12+048299999V0202601N002119999999N999999999+00481+00011103291ADDAA101000091MA1999999097361MD1610091+9999OD139900311999OD259900261999REMSYN08206635 23/// /2604 10048 20001 39736 40329 56009 333 55302 20522 60005 91106 91205=
0162066350999992015010814004+47133+007617FM-12+048299999V0202001N001519999999N999999999+00451+00131103331ADDAA101000091MA1999999097391MD1510031+9999OD139900361999OD259900211999REMSYN08206635 23/// /2003 10045 20013 39739 40333 55003 333 55300 20464 60005 91107 91204=
0162066350999992015010815004+47133+007617FM-12+048299999V0202101N005719999999N999999999+00611+00101103311ADDAA101000091MA1999999097401MD1210031+9999OD139900721999OD259900571999REMSYN08206635 23/// /2111 10061 20010 39740 40331 52003 333 55300 20256 60005 91114 91211=
0162066350999992015010816004+47133+007617FM-12+048299999V0202401N004619999999N999999999+00621+00101103301ADDAA101000091MA1999999097401MD1210041+9999OD139900721999OD259900511999REMSYN08206635 23/// /2409 10062 20010 39740 40330 52004 333 55300 20061 60005 91114 91210=
0162066350999992015010817004+47133+007617FM-12+048299999V0202701N003119999999N999999999+00481+00141103321ADDAA101000091MA1999999097391MD1990001+9999OD139900571999OD259900461999REMSYN08206635 23/// /2706 10048 20014 39739 40332 50000 333 55300 20000 60005 91111 91209=
0274066350999992015010818004+47133+007617FM-12+048299999V0202501N006710102019N015000199+00571+00231103431ADDAA101000091AA212000091GA1081+010201051GE19AGL   +99999+99999GF108991081999010201999999KA1120M+00621MA1999999097511MD1310111+9999OD139901131999OD259900721999REMSYN10606635 02665 82513 10057 20023 39751 40343 53011 60002 333 10062 31/// 55300 20000 60005 88534 91122 91214=
0162066350999992015010819004+47133+007617FM-12+048299999V0202501N004619999999N999999999+00561+00301103531ADDAA101000131MA1999999097601MD1210201+9999OD139900881999OD259900571999REMSYN08206635 23/// /2509 10056 20030 39760 40353 52020 333 55300 20000 69915 91117 91211=
0162066350999992015010820004+47133+007617FM-12+048299999V0202501N005119999999N999999999+00571+00331103631ADDAA101000091MA1999999097701MD1110311+9999OD139900881999OD259900571999REMSYN08206635 23/// /2510 10057 20033 39770 40363 51031 333 55300 20000 60005 91117 91211=
0162066350999992015010821004+47133+007617FM-12+048299999V0202501N005719999999N999999999+00561+00331103711ADDAA101000131MA1999999097771MD1210261+9999OD139901131999OD259900671999REMSYN08206635 23/// /2511 10056 20033 39777 40371 52026 333 55300 20000 69915 91122 91213=
0162066350999992015010822004+47133+007617FM-12+048299999V0202401N006219999999N999999999+00581+00351103721ADDAA101000131MA1999999097781MD1210181+9999OD139901181999OD259900821999REMSYN08206635 23/// /2412 10058 20035 39778 40372 52018 333 55300 20000 69915 91123 91216=
0162066350999992015010823004+47133+007617FM-12+048299999V0202101N003619999999N999999999+00511+00311103791ADDAA101000091MA1999999097831MD1210131+9999OD139900721999OD259900411999REMSYN08206635 23/// /2107 10051 20031 39783 40379 52013 333 55300 20000 60005 91114 91208=
0179066350999992015010900004+47133+007617FM-12+048299999V0202301N002119999999N999999999+00561+00331103841ADDAA101000091AA206000331MA1999999097891MD1210121+9999OD139901181999OD259900821999REMSYN08806635 03/// /2304 10056 20033 39789 40384 52012 69931 333 55300 20000 60005 91123 91216=
0162066350999992015010901004+47133+007617FM-12+048299999V0202301N002619999999N999999999+00471+00291103881ADDAA101000091MA1999999097911MD1210131+9999OD139900571999OD259900411999REMSYN08206635 23/// /2305 10047 20029 39791 40388 52013 333 55300 20000 60005 91111 91208=
0162066350999992015010902004+47133+007617FM-12+048299999V0202101N003119999999N999999999+00521+00321103881ADDAA101000091MA1999999097921MD1210091+9999OD139900411999OD259900361999REMSYN08206635 23/// /2106 10052 20032 39792 40388 52009 333 55300 20000 60005 91108 91207=
0162066350999992015010903004+47133+007617FM-12+048299999V0202001N005119999999N999999999+00461+00231103731ADDAA101000091MA1999999097771MD1810121+9999OD139900671999OD259900511999REMSYN08206635 23/// /2010 10046 20023 39777 40373 58012 333 55300 20000 60005 91113 91210=
0162066350999992015010904004+47133+007617FM-12+048299999V0202401N001519999999N999999999+00401+00211103761ADDAA101000091MA1999999097781MD1710131+9999OD139900571999OD259900411999REMSYN08206635 23/// /2403 10040 20021 39778 40376 57013 333 55300 20000 60005 91111 91208=
0162066350999992015010905004+47133+007617FM-12+048299999V0202501N001019999999N999999999+00251+00111103831ADDAA101000091MA1999999097821MD1510101+9999OD139900211999OD259900151999REMSYN08206635 23/// /2502 10025 20011 39782 40383 55010 333 55300 20000 60005 91104 91203=
0319066350999992015010906004+47133+007617FM-12+048299999V0201901N003110033019N015000199+00301+00131103711ADDAA101000091AA212000331AA324000331AL19900031AY161021AY261021GA1081+003301071GE19AGL   +99999+99999GF108991081999003301999999KA1240N+00091MA1999999097711MD1710061+9999MW1031REMSYN13606635 01465 81906 10030 20013 39771 40371 57006 69932 70366 333 20009 32101 55018 55300 20000 60005 70003 88711 90768 93100 91113 91210=
0162066350999992015010907004+47133+007617FM-12+048299999V0202201N001519999999N999999999+00341+00161103611ADDAA101000091MA1999999097631MD1710151+9999OD139900411999OD259900261999REMSYN08206635 23/// /2203 10034 20016 39763 40361 57015 333 55300 20000 60005 91108 91205=
